{
  "contractName": "Answer",
  "abi": [
    {
      "inputs": [
        {
          "internalType": "uint256",
          "name": "_t",
          "type": "uint256"
        },
        {
          "internalType": "uint256",
          "name": "_y",
          "type": "uint256"
        },
        {
          "internalType": "uint256",
          "name": "_p",
          "type": "uint256"
        },
        {
          "internalType": "uint256",
          "name": "_q",
          "type": "uint256"
        },
        {
          "internalType": "uint256",
          "name": "_h",
          "type": "uint256"
        }
      ],
      "payable": false,
      "stateMutability": "nonpayable",
      "type": "constructor"
    },
    {
      "anonymous": false,
      "inputs": [
        {
          "indexed": false,
          "internalType": "address",
          "name": "answerer",
          "type": "address"
        },
        {
          "indexed": false,
          "internalType": "bool",
          "name": "is_correct",
          "type": "bool"
        }
      ],
      "name": "result",
      "type": "event"
    },
    {
      "constant": true,
      "inputs": [],
      "name": "block_number",
      "outputs": [
        {
          "internalType": "uint256",
          "name": "",
          "type": "uint256"
        }
      ],
      "payable": false,
      "stateMutability": "view",
      "type": "function"
    },
    {
      "constant": true,
      "inputs": [],
      "name": "h",
      "outputs": [
        {
          "internalType": "uint256",
          "name": "",
          "type": "uint256"
        }
      ],
      "payable": false,
      "stateMutability": "view",
      "type": "function"
    },
    {
      "constant": true,
      "inputs": [],
      "name": "last_completed_migration",
      "outputs": [
        {
          "internalType": "uint256",
          "name": "",
          "type": "uint256"
        }
      ],
      "payable": false,
      "stateMutability": "view",
      "type": "function"
    },
    {
      "constant": true,
      "inputs": [],
      "name": "owner",
      "outputs": [
        {
          "internalType": "address",
          "name": "",
          "type": "address"
        }
      ],
      "payable": false,
      "stateMutability": "view",
      "type": "function"
    },
    {
      "constant": true,
      "inputs": [],
      "name": "p",
      "outputs": [
        {
          "internalType": "uint256",
          "name": "",
          "type": "uint256"
        }
      ],
      "payable": false,
      "stateMutability": "view",
      "type": "function"
    },
    {
      "constant": true,
      "inputs": [],
      "name": "q",
      "outputs": [
        {
          "internalType": "uint256",
          "name": "",
          "type": "uint256"
        }
      ],
      "payable": false,
      "stateMutability": "view",
      "type": "function"
    },
    {
      "constant": true,
      "inputs": [],
      "name": "question_id",
      "outputs": [
        {
          "internalType": "uint256",
          "name": "",
          "type": "uint256"
        }
      ],
      "payable": false,
      "stateMutability": "view",
      "type": "function"
    },
    {
      "constant": true,
      "inputs": [],
      "name": "solver",
      "outputs": [
        {
          "internalType": "address",
          "name": "",
          "type": "address"
        }
      ],
      "payable": false,
      "stateMutability": "view",
      "type": "function"
    },
    {
      "constant": true,
      "inputs": [],
      "name": "status",
      "outputs": [
        {
          "internalType": "enum Answer.AnswerStatus",
          "name": "",
          "type": "uint8"
        }
      ],
      "payable": false,
      "stateMutability": "view",
      "type": "function"
    },
    {
      "constant": true,
      "inputs": [],
      "name": "t",
      "outputs": [
        {
          "internalType": "uint256",
          "name": "",
          "type": "uint256"
        }
      ],
      "payable": false,
      "stateMutability": "view",
      "type": "function"
    },
    {
      "constant": true,
      "inputs": [],
      "name": "y",
      "outputs": [
        {
          "internalType": "uint256",
          "name": "",
          "type": "uint256"
        }
      ],
      "payable": false,
      "stateMutability": "view",
      "type": "function"
    },
    {
      "constant": true,
      "inputs": [
        {
          "internalType": "uint256",
          "name": "base",
          "type": "uint256"
        },
        {
          "internalType": "uint256",
          "name": "exp",
          "type": "uint256"
        },
        {
          "internalType": "uint256",
          "name": "mod",
          "type": "uint256"
        }
      ],
      "name": "modExp",
      "outputs": [
        {
          "internalType": "uint256",
          "name": "ret",
          "type": "uint256"
        }
      ],
      "payable": false,
      "stateMutability": "pure",
      "type": "function"
    },
    {
      "constant": false,
      "inputs": [
        {
          "internalType": "uint256",
          "name": "s",
          "type": "uint256"
        }
      ],
      "name": "verify",
      "outputs": [],
      "payable": false,
      "stateMutability": "nonpayable",
      "type": "function"
    },
    {
      "constant": true,
      "inputs": [],
      "name": "getAnswerStatus",
      "outputs": [
        {
          "internalType": "uint256",
          "name": "",
          "type": "uint256"
        }
      ],
      "payable": false,
      "stateMutability": "view",
      "type": "function"
    },
    {
      "constant": false,
      "inputs": [
        {
          "internalType": "uint256",
          "name": "completed",
          "type": "uint256"
        }
      ],
      "name": "setCompleted",
      "outputs": [],
      "payable": false,
      "stateMutability": "nonpayable",
      "type": "function"
    }
  ],
  "bytecode": "0x60806040526000600a60006101000a81548160ff0219169083600281111561002357fe5b021790555034801561003457600080fd5b50604051610969380380610969833981810160405260a081101561005757600080fd5b810190808051906020019092919080519060200190929190805190602001909291908051906020019092919080519060200190929190505050336000806101000a81548173ffffffffffffffffffffffffffffffffffffffff021916908373ffffffffffffffffffffffffffffffffffffffff16021790555032600160006101000a81548173ffffffffffffffffffffffffffffffffffffffff021916908373ffffffffffffffffffffffffffffffffffffffff1602179055508460098190555083600781905550826004819055508160058190555080600681905550600554438161013f57fe5b06600281905550505050505061080f8061015a6000396000f3fe608060405234801561001057600080fd5b50600436106100f55760003560e01c80638cbb4fee11610097578063a56dfe4a11610066578063a56dfe4a146102f2578063b8c9d36514610310578063fd3ab2821461032e578063fdacd5761461034c576100f5565b80638cbb4fee1461024e5780638da5cb5b1461026c57806392d0d153146102b65780639ae8886a146102d4576100f5565b8063445df0ac116100d3578063445df0ac1461019a57806349a7a26d146101b85780635011eede146102025780638753367f14610220576100f5565b8063200d2ed2146100fa57806325a58b56146101265780633148f14f14610144575b600080fd5b61010261037a565b6040518082600281111561011257fe5b60ff16815260200191505060405180910390f35b61012e61038d565b6040518082815260200191505060405180910390f35b6101846004803603606081101561015a57600080fd5b81019080803590602001909291908035906020019092919080359060200190929190505050610393565b6040518082815260200191505060405180910390f35b6101a2610409565b6040518082815260200191505060405180910390f35b6101c061040f565b604051808273ffffffffffffffffffffffffffffffffffffffff1673ffffffffffffffffffffffffffffffffffffffff16815260200191505060405180910390f35b61020a610435565b6040518082815260200191505060405180910390f35b61024c6004803603602081101561023657600080fd5b8101908080359060200190929190505050610457565b005b6102566105b1565b6040518082815260200191505060405180910390f35b6102746105b7565b604051808273ffffffffffffffffffffffffffffffffffffffff1673ffffffffffffffffffffffffffffffffffffffff16815260200191505060405180910390f35b6102be6105dc565b6040518082815260200191505060405180910390f35b6102dc6105e2565b6040518082815260200191505060405180910390f35b6102fa6105e8565b6040518082815260200191505060405180910390f35b6103186105ee565b6040518082815260200191505060405180910390f35b6103366105f4565b6040518082815260200191505060405180910390f35b6103786004803603602081101561036257600080fd5b81019080803590602001909291905050506105fa565b005b600a60009054906101000a900460ff1681565b60025481565b6000808314156103a65760019050610402565b6000600284816103b257fe5b0614156103e65760006103d085600286816103c957fe5b0485610393565b905082818202816103dd57fe5b06915050610402565b816103f5856001860385610393565b8502816103fe57fe5b0690505b9392505050565b60085481565b600160009054906101000a900473ffffffffffffffffffffffffffffffffffffffff1681565b6000600a60009054906101000a900460ff16600281111561045257fe5b905090565b600160009054906101000a900473ffffffffffffffffffffffffffffffffffffffff1673ffffffffffffffffffffffffffffffffffffffff163373ffffffffffffffffffffffffffffffffffffffff1614156105ae5760006104b88261065b565b90506000600554806104c657fe5b6009546104da600754600254600554610393565b0990507ffa366607e86f7102db62f18adf30a6724e801f1c7c93592fb2715f54e0fe35c5600160009054906101000a900473ffffffffffffffffffffffffffffffffffffffff16828414604051808373ffffffffffffffffffffffffffffffffffffffff1673ffffffffffffffffffffffffffffffffffffffff168152602001821515151581526020019250505060405180910390a180821461057e576002610581565b60015b600a60006101000a81548160ff0219169083600281111561059e57fe5b02179055506105ab610673565b50505b50565b60035481565b6000809054906101000a900473ffffffffffffffffffffffffffffffffffffffff1681565b60095481565b60045481565b60075481565b60065481565b60055481565b600160009054906101000a900473ffffffffffffffffffffffffffffffffffffffff1673ffffffffffffffffffffffffffffffffffffffff163373ffffffffffffffffffffffffffffffffffffffff16141561065857806008819055505b50565b600061066c60065483600554610393565b9050919050565b60008060009054906101000a900473ffffffffffffffffffffffffffffffffffffffff16905060008173ffffffffffffffffffffffffffffffffffffffff16638da5cb5b6040518163ffffffff1660e01b815260040160206040518083038186803b1580156106e157600080fd5b505afa1580156106f5573d6000803e3d6000fd5b505050506040513d602081101561070b57600080fd5b810190808051906020019092919050505090508073ffffffffffffffffffffffffffffffffffffffff16636528e3416000809054906101000a900473ffffffffffffffffffffffffffffffffffffffff166040518263ffffffff1660e01b8152600401808273ffffffffffffffffffffffffffffffffffffffff1673ffffffffffffffffffffffffffffffffffffffff168152602001915050600060405180830381600087803b1580156107be57600080fd5b505af11580156107d2573d6000803e3d6000fd5b50505050505056fea265627a7a72315820af9fc4508ca372874ebeeec2cf6d64aa555a43f304b9c5303ce1ddd0aea5684964736f6c63430005100032",
  "source": "// SPDX-License-Identifier: MIT\npragma solidity >=0.4.21 <0.7.0;\nimport \"./Problem.sol\";\nimport \"./Master.sol\";\n\n// TODO: 問題コントラクトからのみ呼び出せる様にしたいがどうやって・・・？ 親を持つとか？\ncontract Answer {\n\n    address public owner;// 問題コントラクト\n    address public solver;// =解答者 =このコントラクトの作成者\n\n    // 生成時のブロックの高さ　ゼロ知識証明に使用\n    uint public block_number;\n    uint public question_id;\n    uint public p;\n    uint public q;\n\n    uint public h;\n    uint public y;\n    uint public last_completed_migration;\n    uint public t;\n    AnswerStatus public status = AnswerStatus.Unanswered;\n\n    // 解答ステータス(未解答、1: 正解, 2: 不正解 )\n    enum AnswerStatus { Unanswered, Correct, InCorrect}\n\n    //イベント設置\n    event result(address answerer,bool is_correct);\n\n\n    // テストのためexportしている。\n    // https://github.com/monicanagent/cypherpoker/issues/5\n    // TODO: エラーハンドリング(openzeppelinを用いて)\n    function modExp(uint256 base, uint256 exp, uint256 mod) pure public returns (uint256 ret)  {\n        if (exp == 0) return 1;\n        if (exp % 2 == 0 ) {\n            uint tt = modExp(base,exp/2,mod);\n            return tt * tt % mod;\n        }\n        return base * modExp(base,exp-1,mod) % mod;\n    }\n\n    // 位数qの有限情報巡回群のexponentiation番目の値を取得する。\n    function getFiniteCyclicGroup(uint256 exponentiation) private view returns (uint256 val){\n        return modExp(h,exponentiation,q);\n    }\n\n    // 解答者はランダムな値rを選択して t=h^rとして公開する。\n    // _yはh^x (mod q), 問題コントラクトから与えられる想定\n    constructor(uint256 _t,uint256 _y,uint256 _p,uint256 _q,uint256 _h) public {\n        owner = msg.sender;\n        solver = tx.origin;\n        t = _t;\n        y = _y;\n        p = _p;\n        q = _q;\n        h = _h;\n        block_number = block.number % q;\n    }\n\n    // s \\equiv xc+r (mod q)\n    function verify(uint s) public restricted {\n        uint256 c1 = getFiniteCyclicGroup(s);\n        uint256 c2 = mulmod(modExp(y,block_number,q),t,q);\n        emit result(solver,c1 == c2);\n        status = (c1 == c2) ? AnswerStatus.Correct : AnswerStatus.InCorrect;\n        callToMaster();\n    }\n\n    function getAnswerStatus() public view returns (uint) {\n        return uint(status);\n    }\n\n    function callToMaster() internal {\n        Problem pbm = Problem(owner);\n        Master  mascon = Master(pbm.owner());\n        mascon.setAnswerRecord(owner);\n    }\n\n    modifier restricted() {\n        if (msg.sender == solver) _;\n    }\n\n    function setCompleted(uint completed) public restricted {\n        last_completed_migration = completed;\n    }\n}",
  "sourcePath": "/Users/reud/eth-quiz-with-wrapper/contracts/Answer.sol",
  "compiler": {
    "name": "solc",
    "version": "0.5.16+commit.9c3226ce.Emscripten.clang"
  },
  "schemaVersion": "3.0.23",
  "updatedAt": "2020-10-23T09:08:17.869Z",
  "devdoc": {
    "methods": {}
  },
  "userdoc": {
    "methods": {}
  }
}